{
    "_format": "hh-sol-artifact-1",
    "contractName": "AimXTokenSender",
    "sourceName": "contracts/AimXTokenSender.sol",
    "abi": [
        {
            "inputs": [],
            "stateMutability": "nonpayable",
            "type": "constructor"
        },
        {
            "inputs": [
                {
                    "internalType": "address",
                    "name": "owner",
                    "type": "address"
                }
            ],
            "name": "OwnableInvalidOwner",
            "type": "error"
        },
        {
            "inputs": [
                {
                    "internalType": "address",
                    "name": "account",
                    "type": "address"
                }
            ],
            "name": "OwnableUnauthorizedAccount",
            "type": "error"
        },
        {
            "anonymous": false,
            "inputs": [
                {
                    "indexed": true,
                    "internalType": "address",
                    "name": "previousOwner",
                    "type": "address"
                },
                {
                    "indexed": true,
                    "internalType": "address",
                    "name": "newOwner",
                    "type": "address"
                }
            ],
            "name": "OwnershipTransferred",
            "type": "event"
        },
        {
            "inputs": [],
            "name": "owner",
            "outputs": [
                {
                    "internalType": "address",
                    "name": "",
                    "type": "address"
                }
            ],
            "stateMutability": "view",
            "type": "function"
        },
        {
            "inputs": [],
            "name": "renounceOwnership",
            "outputs": [],
            "stateMutability": "nonpayable",
            "type": "function"
        },
        {
            "inputs": [
                {
                    "internalType": "address",
                    "name": "tokenAddress",
                    "type": "address"
                },
                {
                    "internalType": "address",
                    "name": "recipient",
                    "type": "address"
                },
                {
                    "internalType": "uint256",
                    "name": "amount",
                    "type": "uint256"
                }
            ],
            "name": "sendToken",
            "outputs": [],
            "stateMutability": "nonpayable",
            "type": "function"
        },
        {
            "inputs": [
                {
                    "internalType": "address",
                    "name": "newOwner",
                    "type": "address"
                }
            ],
            "name": "transferOwnership",
            "outputs": [],
            "stateMutability": "nonpayable",
            "type": "function"
        },
        {
            "inputs": [
                {
                    "internalType": "address payable",
                    "name": "recipient",
                    "type": "address"
                },
                {
                    "internalType": "uint256",
                    "name": "amount",
                    "type": "uint256"
                }
            ],
            "name": "withdrawETH",
            "outputs": [],
            "stateMutability": "nonpayable",
            "type": "function"
        },
        {
            "stateMutability": "payable",
            "type": "receive"
        }
    ],
    "bytecode": "0x608060405234801561001057600080fd5b5033600073ffffffffffffffffffffffffffffffffffffffff168173ffffffffffffffffffffffffffffffffffffffff16036100845760006040517f1e4fbdf700000000000000000000000000000000000000000000000000000000815260040161007b919061019e565b60405180910390fd5b6100938161009960201b60201c565b506101b9565b60008060009054906101000a900473ffffffffffffffffffffffffffffffffffffffff169050816000806101000a81548173ffffffffffffffffffffffffffffffffffffffff021916908373ffffffffffffffffffffffffffffffffffffffff1602179055508173ffffffffffffffffffffffffffffffffffffffff168173ffffffffffffffffffffffffffffffffffffffff167f8be0079c531659141344cd1fd0a4f28419497f9722a3daafe3b4186f6b6457e060405160405180910390a35050565b600073ffffffffffffffffffffffffffffffffffffffff82169050919050565b60006101888261015d565b9050919050565b6101988161017d565b82525050565b60006020820190506101b3600083018461018f565b92915050565b610d6c806101c86000396000f3fe60806040526004361061004e5760003560e01c80632fdcfbd21461005a5780634782f77914610083578063715018a6146100ac5780638da5cb5b146100c3578063f2fde38b146100ee57610055565b3661005557005b600080fd5b34801561006657600080fd5b50610081600480360381019061007c91906107e4565b610117565b005b34801561008f57600080fd5b506100aa60048036038101906100a59190610875565b6103ca565b005b3480156100b857600080fd5b506100c1610535565b005b3480156100cf57600080fd5b506100d8610549565b6040516100e591906108c4565b60405180910390f35b3480156100fa57600080fd5b50610115600480360381019061011091906108df565b610572565b005b61011f6105f8565b600073ffffffffffffffffffffffffffffffffffffffff168373ffffffffffffffffffffffffffffffffffffffff160361018e576040517f08c379a000000000000000000000000000000000000000000000000000000000815260040161018590610969565b60405180910390fd5b600073ffffffffffffffffffffffffffffffffffffffff168273ffffffffffffffffffffffffffffffffffffffff16036101fd576040517f08c379a00000000000000000000000000000000000000000000000000000000081526004016101f4906109d5565b60405180910390fd5b60008111610240576040517f08c379a000000000000000000000000000000000000000000000000000000000815260040161023790610a41565b60405180910390fd5b6000839050818173ffffffffffffffffffffffffffffffffffffffff166370a08231306040518263ffffffff1660e01b815260040161027f91906108c4565b602060405180830381865afa15801561029c573d6000803e3d6000fd5b505050506040513d601f19601f820116820180604052508101906102c09190610a76565b1015610301576040517f08c379a00000000000000000000000000000000000000000000000000000000081526004016102f890610aef565b60405180910390fd5b60008173ffffffffffffffffffffffffffffffffffffffff1663a9059cbb85856040518363ffffffff1660e01b815260040161033e929190610b1e565b6020604051808303816000875af115801561035d573d6000803e3d6000fd5b505050506040513d601f19601f820116820180604052508101906103819190610b7f565b9050806103c3576040517f08c379a00000000000000000000000000000000000000000000000000000000081526004016103ba90610bf8565b60405180910390fd5b5050505050565b6103d26105f8565b600073ffffffffffffffffffffffffffffffffffffffff168273ffffffffffffffffffffffffffffffffffffffff1603610441576040517f08c379a0000000000000000000000000000000000000000000000000000000008152600401610438906109d5565b60405180910390fd5b80471015610484576040517f08c379a000000000000000000000000000000000000000000000000000000000815260040161047b90610c64565b60405180910390fd5b60008273ffffffffffffffffffffffffffffffffffffffff16826040516104aa90610cb5565b60006040518083038185875af1925050503d80600081146104e7576040519150601f19603f3d011682016040523d82523d6000602084013e6104ec565b606091505b5050905080610530576040517f08c379a000000000000000000000000000000000000000000000000000000000815260040161052790610d16565b60405180910390fd5b505050565b61053d6105f8565b610547600061067f565b565b60008060009054906101000a900473ffffffffffffffffffffffffffffffffffffffff16905090565b61057a6105f8565b600073ffffffffffffffffffffffffffffffffffffffff168173ffffffffffffffffffffffffffffffffffffffff16036105ec5760006040517f1e4fbdf70000000000000000000000000000000000000000000000000000000081526004016105e391906108c4565b60405180910390fd5b6105f58161067f565b50565b610600610743565b73ffffffffffffffffffffffffffffffffffffffff1661061e610549565b73ffffffffffffffffffffffffffffffffffffffff161461067d57610641610743565b6040517f118cdaa700000000000000000000000000000000000000000000000000000000815260040161067491906108c4565b60405180910390fd5b565b60008060009054906101000a900473ffffffffffffffffffffffffffffffffffffffff169050816000806101000a81548173ffffffffffffffffffffffffffffffffffffffff021916908373ffffffffffffffffffffffffffffffffffffffff1602179055508173ffffffffffffffffffffffffffffffffffffffff168173ffffffffffffffffffffffffffffffffffffffff167f8be0079c531659141344cd1fd0a4f28419497f9722a3daafe3b4186f6b6457e060405160405180910390a35050565b600033905090565b600080fd5b600073ffffffffffffffffffffffffffffffffffffffff82169050919050565b600061077b82610750565b9050919050565b61078b81610770565b811461079657600080fd5b50565b6000813590506107a881610782565b92915050565b6000819050919050565b6107c1816107ae565b81146107cc57600080fd5b50565b6000813590506107de816107b8565b92915050565b6000806000606084860312156107fd576107fc61074b565b5b600061080b86828701610799565b935050602061081c86828701610799565b925050604061082d868287016107cf565b9150509250925092565b600061084282610750565b9050919050565b61085281610837565b811461085d57600080fd5b50565b60008135905061086f81610849565b92915050565b6000806040838503121561088c5761088b61074b565b5b600061089a85828601610860565b92505060206108ab858286016107cf565b9150509250929050565b6108be81610770565b82525050565b60006020820190506108d960008301846108b5565b92915050565b6000602082840312156108f5576108f461074b565b5b600061090384828501610799565b91505092915050565b600082825260208201905092915050565b7f496e76616c696420746f6b656e20616464726573730000000000000000000000600082015250565b600061095360158361090c565b915061095e8261091d565b602082019050919050565b6000602082019050818103600083015261098281610946565b9050919050565b7f496e76616c696420726563697069656e74000000000000000000000000000000600082015250565b60006109bf60118361090c565b91506109ca82610989565b602082019050919050565b600060208201905081810360008301526109ee816109b2565b9050919050565b7f416d6f756e74206d7573742062652067726561746572207468616e207a65726f600082015250565b6000610a2b60208361090c565b9150610a36826109f5565b602082019050919050565b60006020820190508181036000830152610a5a81610a1e565b9050919050565b600081519050610a70816107b8565b92915050565b600060208284031215610a8c57610a8b61074b565b5b6000610a9a84828501610a61565b91505092915050565b7f496e73756666696369656e742062616c616e636520696e20636f6e7472616374600082015250565b6000610ad960208361090c565b9150610ae482610aa3565b602082019050919050565b60006020820190508181036000830152610b0881610acc565b9050919050565b610b18816107ae565b82525050565b6000604082019050610b3360008301856108b5565b610b406020830184610b0f565b9392505050565b60008115159050919050565b610b5c81610b47565b8114610b6757600080fd5b50565b600081519050610b7981610b53565b92915050565b600060208284031215610b9557610b9461074b565b5b6000610ba384828501610b6a565b91505092915050565b7f546f6b656e207472616e73666572206661696c65640000000000000000000000600082015250565b6000610be260158361090c565b9150610bed82610bac565b602082019050919050565b60006020820190508181036000830152610c1181610bd5565b9050919050565b7f496e73756666696369656e742045544820696e20636f6e747261637400000000600082015250565b6000610c4e601c8361090c565b9150610c5982610c18565b602082019050919050565b60006020820190508181036000830152610c7d81610c41565b9050919050565b600081905092915050565b50565b6000610c9f600083610c84565b9150610caa82610c8f565b600082019050919050565b6000610cc082610c92565b9150819050919050565b7f455448207472616e73666572206661696c656400000000000000000000000000600082015250565b6000610d0060138361090c565b9150610d0b82610cca565b602082019050919050565b60006020820190508181036000830152610d2f81610cf3565b905091905056fea26469706673582212203b371c12d629f4e52acc4d9736848cc2c8ef9d94bf07f26f01c1758e52eb02cc64736f6c634300081c0033",
    "linkReferences": {},
    "deployedLinkReferences": {}
}